:0400000007EF00F016
:100008007F8282ED08F04DEF18F09E0E0001B76F69
:10001800000E0001B86FBDEF04F0250E0001BE19F7
:10002800D8B406D00001BE512EEC1AF0BDEF04F092
:10003800000E0001BD6F000EBC6F000E0001C06F06
:10004800000EBF6F0ED00001BF8708D00001BF812E
:1000580005D00001C08702D00001BF8500019C4B7C
:100068009D2B9CC0F6FF9DC0F7FF0800F550200AA5
:10007800D8B4ECD7030AD8B4ECD70E0AD8B4E3D76F
:100088001D0AD8B4E9D70001BFA702D00001BF9567
:100098009CC0F6FF9DC0F7FF0800F55098EC19F0DA
:1000A800D8A041D0000E0001BD6F000EBC6FBCC0CF
:1000B80090F0BDC091F0000E0001936F0A0E926F90
:1000C80066EC19F090C0BCF091C0BDF0D00E0001F4
:1000D800A86FFF0E0001A96F9CC0F6FF9DC0F7FF37
:1000E8000800F5500001AA6FAB6B0001A851000190
:1000F800AA270001A9510001AB230001AA51000160
:10010800BC270001AB510001BD2300019C4B9D2B76
:100118009CC0F6FF9DC0F7FF0800F55098EC19F059
:10012800D8A01AD0C4D79CC0F6FF9DC0F7FF08001E
:10013800F5502A0AD8A410D0B7C0D9FFB8C0DAFF42
:10014800DECFBCF0DDCFBDF0020E0001B727000EF8
:10015800B82300019C4B9D2B9CC0F6FF9DC0F7FF68
:100168000800F5502E0AD8A440D00001C08D000127
:100178009C4B9D2B9CC0F6FF9DC0F7FF0800F550D7
:100188002A0AD8A410D0B7C0D9FFB8C0DAFFDF5008
:100198000001BB6F020E0001B727000EB823000153
:1001A8009C4B9D2BB9D0000E0001BB6F13D09CC097
:1001B800F6FF9DC0F7FF0800F5CFA8F00001BB517E
:1001C8000A0DF3500001A825D00F0001BB6F0001F4
:1001D8009C4B9D2B9CC0F6FF9DC0F7FF0800F55077
:1001E80098EC19F0D8A098D0E2D7000E0001BB6FA8
:1001F80093D00001BF8DB5D00001BF8B0001BF8F28
:10020800B0D00001BB510001D8B417D0BBC0A8F0D2
:100218000001A96BA8BFA9070001B5510001A85D9D
:100228000001B6510001A959D8B007D00001BB514F
:100238000001B56FB66BB5BFB6070001BC51000130
:10024800B55D0001BD510001B659D8B009D0000113
:10025800B5510001BC5F0001B6510001BD5B05D07E
:10026800000E0001BD6F000EBC6F0001BFA704D0D7
:1002780019D0200E2EEC1AF00001BC07D8A0BD073B
:100288000001BC29F6E10001BD29D8B40BD0F1D793
:10029800ACC0D9FFADC0DAFFDF502EEC1AF0000178
:1002A800AC4BAD2B0001B507D8A0B6070001B529A6
:1002B800EFE10001B629D8A4EBD70001BFB704D0FD
:1002C80058D3200E2EEC1AF00001BC07D8A0BD07A9
:1002D8000001BC29F6E10001BD29D8B44AD3F1D701
:1002E800B7C0D9FFB8C0DAFFDF500001BE6F020EF9
:1002F8000001B727000EB823BE0E0001AC6F000E38
:100308000001AD6F000E0001B66F010EB56F79D711
:10031800C00E0001BF1325D09CC0F6FF9DC0F7FF9B
:1003280000019C4B9D2B0800F5CFBEF00001BE518B
:10033800000AD8B41200580AD8B45ED73B0AD8B419
:10034800CFD7070AD8B40DD00D0AD8B40AD0060AF8
:10035800D8B44FD71A0AD8B4DBD70D0AD8B44ED7B9
:10036800CBD7C00E0001BF150001A86F000E000119
:10037800C0150001A96F0001A8510001A911D8A456
:1003880019D0B7C0D9FFB8C0DAFFDECFB9F0DDCFDA
:10039800BAF0020E0001B727000EB8230001BAAF69
:1003A80016D0030E0001BF130001B96DBA1FD8B0F3
:1003B800BA2B0DD0B7C0D9FFB8C0DAFFDECFB9F07D
:1003C800DDCFBAF0020E0001B727000EB8230001F6
:1003D800BB510001D8A463D00001B9510001BA1182
:1003E800D8A45DD00001BB2B5AD0010E0001BE6F0E
:1003F800050E0001BE19D8B461D00001BE51020D2E
:10040800A40EF324F66EFD0EF420F76E0900F550E5
:100418000001B95D0900F5500001BA59D8A04ED0C5
:100428000001BE2BE5D7010E0001BE6F040E0001CE
:10043800BE19D8B443D00001BE51020DAE0EF3244C
:10044800F66EFD0EF420F76E0900F5500001B95D57
:100458000900F5500001BA59D8A030D00001BE2BD0
:10046800E5D7010E0001BE6F060E0001BE19D8B413
:1004780025D00001BE51020D980EF324F66EFD0E34
:10048800F420F76E0900F5500001B95D0900F55038
:100498000001BA59D8A012D00001BE2BE5D700013F
:1004A800BF51C00B000AD8B4A0D7400AD8B4D9D7D6
:1004B800C00AD8B4B8D7400AD8B497D70001BE51FB
:1004C800800A0001A86F0001BB51800A0001A85DE5
:1004D800D8B003D0BBC0BEF00DD00001BB51800A1C
:1004E8000001A86F0001BE51800A0001A85DD8A0D4
:1004F800BEC0BBF00001BC510001BD11D8B414D07E
:10050800030E0001BF150001A86F000E0001C01501
:100518000001A96F0001A8510001A911D8B404D0A5
:100528000001BC07D8A0BD070001C0AD21D0800ED6
:100538000001BBBF7F0E0001A86F0001BC51000184
:10054800BB5D0001BD51800A0001A859D8B00BD08D
:100558000001BB510001BC5F000E0001BBBFFF0ED4
:100568000001BD5B05D0000E0001BD6F000EBC6F21
:10057800C40E0001A86F080E0001A96FBFC0AAF041
:10058800C0C0ABF00001A8510001AA170001A95191
:100598000001AB17400E0001AA1910E1080E000176
:1005A800AB19D8A40BD00001BC510001BD11D8B4BF
:1005B80036D00001BC07D8A0BD0731D0C00E00015D
:1005C800A86F080E0001A96FBFC0AAF0C0C0ABF0A9
:1005D8000001A8510001AA170001A9510001AB1799
:1005E800800E0001AA191BE1080E0001AB19D8A45E
:1005F80016D00001BDBF0ED00001BD5105E1030EAC
:100608000001BC5DD8A006D00001FE0EBC27FF0E7D
:10061800BD2305D0000E0001BD6F000EBC6F800E1B
:100628000001BEBF7F0E0001A86F0001BC51000190
:10063800BE5D0001BD51800A0001A859D8B00BD099
:100648000001BE510001BC5F000E0001BEBFFF0EDD
:100658000001BD5B05D0000E0001BD6F000EBC6F30
:100668000001BFA558D0030E0001BF150001A86FF7
:10067800000E0001C0150001A96F0001A85100017A
:10068800A911D8B404D02D0E2EEC1AF036D00001E2
:10069800BFA104D0200E2EEC1AF02FD0C00E0001FE
:1006A800A86F080E0001A96FBFC0AAF0C0C0ABF0C8
:1006B8000001A8510001AA170001A9510001AB17B8
:1006C800800E0001AA1919E1080E0001AB19D8A47F
:1006D80014D0300E2EEC1AF00001BFBB05D0000E6E
:1006E8000001AF6F780E04D0000E0001AF6F580EF6
:1006F800AE6F0001AE512EEC1AF00001BC510001A2
:10070800BD11D8B416D1300E2EEC1AF00001BC077A
:10071800D8A0BD07F2D70001BC510001BD11D8B463
:1007280010D00001BFB70DD0200E2EEC1AF000013A
:10073800BC07D8A0BD070001BC510001BD11D8A459
:10074800F3D7030E0001BF150001A86F000E0001CA
:10075800C0150001A96F0001A8510001A911D8B462
:1007680004D02D0E2EEC1AF006D00001BFA103D044
:10077800200E2EEC1AF0C00E0001A86F080E000122
:10078800A96FBFC0AAF0C0C0ABF00001A85100011A
:10079800AA170001A9510001AB17400E0001AA19C0
:1007A80009E1080E0001AB19D8A404D0300E2EECD4
:1007B8001AF0BFD0C00E0001A86F080E0001A96F83
:1007C800BFC0AAF0C0C0ABF00001A8510001AA1731
:1007D8000001A9510001AB17800E0001AA1904E11C
:1007E800080E0001AB19D8A4A4D0300E2EEC1AF0D4
:1007F8000001BFBB05D0000E0001B16F780E04D018
:10080800000E0001B16F580EB06F0001B0512EEC10
:100818001AF08FD00001BB51020DA40EF324F66E1E
:10082800FD0EF420F76E0900F5CF92F00A00F5CF1F
:1008380093F0B9C090F0BAC091F076EC16F090C081
:1008480097F091C098F0000E00019A6F0A0E996F08
:100858008EEC17F00001975155D0B9C090F0BAC08E
:1008680091F00001BB51020DAE0EF324F66EFD0EA1
:10087800F420F76E0900F5CF92F00A00F5CF93F057
:1008880076EC16F0000190510F0B0001B46F0001D7
:10089800BFBB05D0870E0001B26FFF0E04D0760EE5
:1008A8000001B26FFF0E0001B36F0001B451010DDA
:1008B800B2C0A8F0B3C0A9F0F3500001A827F450C3
:1008C8000001A923A8C0F6FFA9C0F7FF0800F5CFCB
:1008D800BEF02BD0B9C090F0BAC091F00001BB5166
:1008E800020D980EF324F66EFD0EF420F76E090043
:1008F800F5CF92F00A00F5CF93F076EC16F00001F0
:100908009051070B300F0001BE6F0FD00001BF518F
:10091800C00B000AD8B47ED7400AD8B4DBD7C00AC7
:10092800D8B49BD7400AD8B475D70001BE512EEC75
:100938001AF00001BB070001BB29D8A4E7D70001C2
:10094800BFA717D00001BDBF14D00001BD5104E1FD
:100958000001BC05D8A00DD0200E2EEC1AF0000125
:10096800BC07D8A0BD070001BC510001BD11D8A427
:10097800F3D79CC0F6FF9DC0F7FF00019C4B9D2B51
:100988000800F5CFBEF00001BE51D8B4120011EF37
:1009980000F00F0E1E6E000E1F6EA3D3250E251835
:1009A800D8B404D025503EEC1AF09BD3000E246E28
:1009B800000E236E000E276E000E266E09D02686C6
:1009C80005D0268003D0278601D026840D4A0E2A1A
:1009D8000DC0F6FF0EC0F7FF0800F550200AD8B486
:1009E800F0D7030AD8B4EFD70E0AD8B4E8D71D0A4F
:1009F800D8B4EBD726B626940DC0F6FF0EC0F7FF85
:100A08000800F550F6EC19F0D8A033D0000E246E8B
:100A1800000E236E23C001F024C002F0000E046E05
:100A28000A0E036EC0EC19F001C023F002C024F0D6
:100A3800D00E0F6EFF0E106E0DC0F6FF0EC0F7FF42
:100A48000800F550116E126A0F501126105012222C
:100A580011502326125024220D4A0E2A0DC0F6FFEB
:100A68000EC0F7FF0800F550F6EC19F0D8A018D022
:100A7800D1D70DC0F6FF0EC0F7FF0800F5502A0ABF
:100A8800D8A40ED01EC0D9FF1FC0DAFFDECF23F0D6
:100A9800DDCF24F0020E1E26000E1F220D4A0E2A5C
:100AA8000DC0F6FF0EC0F7FF0800F5502E0AD8A4B7
:100AB80036D0278C0D4A0E2A0DC0F6FF0EC0F7FF60
:100AC8000800F5502A0AD8A40DD01EC0D9FF1FC0AF
:100AD800DAFFDF50226E020E1E26000E1F220D4A7C
:100AE8000E2A8CD0000E226E0FD00DC0F6FF0EC05D
:100AF800F7FF0800F5CF0FF022500A0DF3500F242E
:100B0800D00F226E0D4A0E2A0DC0F6FF0EC0F7FF59
:100B18000800F550F6EC19F0D8A070D0E6D7000E12
:100B2800226E6CD0268C8DD0268A268E8AD02250B2
:100B3800D8B410D022C00FF0106A0FBE10061C5097
:100B48000F5C1D501058D8B005D022501C6E1D6A7D
:100B58001CBE1D0623501C5C24501D58D8B005D05F
:100B68001C50235E1D50245A04D0000E246E000E23
:100B7800236E26A604D015D0200E3EEC1AF02306CC
:100B8800D8A024062328F8E12428D8B40AD0F4D71A
:100B980014C0D9FF15C0DAFFDF503EEC1AF0144A32
:100BA800152A1C06D8A01D061C28F2E11D28D8A469
:100BB800EFD726B604D095D2200E3EEC1AF02306C5
:100BC800D8A024062328F8E12428D8B48AD2F4D758
:100BD8001EC0D9FF1FC0DAFFDF50256E020E1E2689
:100BE800000E1F22250E146E000E156E000E1D6ECF
:100BF800010E1C6E9CD7C00E261223D00DC0F6FF26
:100C08000EC0F7FF0D4A0E2A0800F5CF25F0255033
:100C1800000AD8B41200580AD8B486D73B0AD8B408
:100C2800D7D7070AD8B40DD00D0AD8B40AD0060A07
:100C3800D8B478D71A0AD8B4DED70D0AD8B475D77D
:100C4800D1D7C00E26140F6E000E2714106E0F5049
:100C58001010D8A415D01EC0D9FF1FC0DAFFDECFF0
:100C680020F0DDCF21F0020E1E26000E1F2221AE3D
:100C780013D0030E2612206C211ED8B0212A0CD0C6
:100C88001EC0D9FF1FC0DAFFDECF20F0DDCF21F074
:100C9800020E1E26000E1F222250D8A44ED020502D
:100CA8002110D8A44AD0222A48D0010E256E050E5C
:100CB8002518D8B450D02550020DA40EF324F66E92
:100CC800FD0EF420F76E0900F550205C0900F55080
:100CD8002158D8A040D0252AEAD7010E256E040E47
:100CE8002518D8B438D02550020DAE0EF324F66E70
:100CF800FD0EF420F76E0900F550205C0900F55050
:100D08002158D8A028D0252AEAD7010E256E060E2C
:100D18002518D8B420D02550020D980EF324F66E6D
:100D2800FD0EF420F76E0900F550205C0900F5501F
:100D38002158D8A010D0252AEAD72650C00B000A7F
:100D4800D8B4B3D7400AD8B4E0D7C00AD8B4C5D706
:100D5800400AD8B4AAD72550800A0F6E2250800ABC
:100D68000F5CD8B003D022C025F009D02250800AE9
:100D78000F6E2550800A0F5CD8A025C022F02350A2
:100D88002410D8B40DD0030E26140F6E000E2714AD
:100D9800106E0F501010D8B403D02306D8A0240624
:100DA80027AC16D0800E22BE7F0E0F6E2350225C19
:100DB8002450800A0F58D8B007D02250235E000E66
:100DC80022BEFF0E245A04D0000E246E000E236E9D
:100DD800C40E0F6E080E106E26C011F027C012F058
:100DE8000F50111610501216400E11180CE1080E73
:100DF8001218D8A408D023502410D8B428D0230619
:100E0800D8A0240624D0C00E0F6E080E106E26C07F
:100E180011F027C012F00F50111610501216800E44
:100E2800111815E1080E1218D8A411D024BE0BD041
:100E3800245004E1030E235CD8A005D0FE0E23261F
:100E4800FF0E242204D0000E246E000E236E800EA6
:100E580025BE7F0E0F6E2350255C2450800A0F5844
:100E6800D8B007D02550235E000E25BEFF0E245AA9
:100E780004D0000E246E000E236E26A442D0030E6A
:100E880026140F6E000E2714106E0F501010D8B4D1
:100E980004D02D0E3EEC1AF029D026A004D0200E46
:100EA8003EEC1AF023D0C00E0F6E080E106E26C04E
:100EB80011F027C012F00F50111610501216800EA4
:100EC800111814E1080E1218D8A410D0300E3EECF8
:100ED8001AF026BA04D0000E176E780E03D0000E52
:100EE800176E580E166E16503EEC1AF0235024104A
:100EF800D8B4E1D0300E3EEC1AF02306D8A0240670
:100F0800F5D723502410D8A426B60AD0200E3EECDC
:100F18001AF02306D8A0240623502410D8A4F6D704
:100F2800030E26140F6E000E2714106E0F501010AB
:100F3800D8B404D02D0E3EEC1AF005D026A003D06C
:100F4800200E3EEC1AF0C00E0F6E080E106E26C072
:100F580011F027C012F00F50111610501216400E43
:100F6800111808E1080E1218D8A404D0300E3EEC6F
:100F78001AF0A1D0C00E0F6E080E106E26C011F028
:100F880027C012F00F50111610501216800E1118AB
:100F980003E1080E1218D8A48ED0300E3EEC1AF0D9
:100FA80026BA04D0000E196E780E03D0000E196E02
:100FB800580E186E18503EEC1AF07DD02250020DD3
:100FC800A40EF324F66EFD0EF420F76E0900F5CF9B
:100FD80003F00A00F5CF04F020C001F021C002F0B0
:100FE80076EC18F001C008F002C009F0000E0B6E94
:100FF8000A0E0A6EEEEC18F0085049D020C001F035
:1010080021C002F02250020DAE0EF324F66EFD0E42
:10101800F420F76E0900F5CF03F00A00F5CF04F0CD
:1010280076EC18F001500F0B136E26BA04D0870E19
:101038001A6EFF0E03D0760E1A6EFF0E1B6E13503B
:10104800010D1AC00FF01BC010F0F3500F26F4501A
:1010580010220FC0F6FF10C0F7FF0800F5CF25F0EB
:1010680027D020C001F021C002F02250020D980EB6
:10107800F324F66EFD0EF420F76E0900F5CF03F0A9
:101088000A00F5CF04F076EC18F00150070B300F8A
:10109800256E0ED02650C00B000AD8B48FD7400A50
:1010A800D8B4DFD7C00AD8B4A9D7400AD8B486D7ED
:1010B80025503EEC1AF022062228D8A4EBD726B6F3
:1010C80024BE0FD0245003E12304D8A00AD0200E58
:1010D8003EEC1AF02306D8A0240623502410D8A4E6
:1010E800F6D70DC0F6FF0EC0F7FF0D4A0E2A08000E
:1010F800F5CF25F02550D8B4120050D40600FACF09
:1011080082F0FBCF83F0E9CF84F0EACF85F0E1CF1E
:1011180086F0E2CF87F0D9CF88F0DACF89F0F3CF25
:101128008AF0F4CF8BF0F6CF8CF0F7CF8DF0F8CFB4
:101138008EF0F5CF8FF0F0B0D0D0EDD00001EB6994
:10114800EC690001ED4BEE2BE80E0D6EFF0E0E6EF6
:10115800CDEC04F0070EB0D08984F288F088F28ACA
:10116800D58E000ED76E000ED66EE80E0D6EFF0EF1
:101178000E6ECDEC04F029EC17F0C4C07BF0C3C0B0
:101188007AF0000E0001D56F000ED46FD4C0D2F0F3
:10119800D5C0D3F0010E44EC1AF00001EB69EC69FC
:1011A800020E8AD00001EB4BEC2B050E0001EA6F12
:1011B8001F0E8118D8A4ADD0FBD77CC080F07DC0AD
:1011C80081F00001801F811F804B812B7850000126
:1011D80080250001E46F7950000181210001E56F4D
:1011E8000001EB69EC69060E67D00001EB69EC6958
:1011F800000E62D08994F298F098F29AD59E29EC64
:1012080017F0C4C077F0C3C076F07BC063F0646A9F
:1012180095EC0FF063C074F064C075F074C001F011
:1012280075C002F0000E046E3C0E036EC0EC19F09F
:1012380001C080F002C081F07AC063F0646A95EC66
:101248000FF06350000180257C6E645000018121FD
:101258007D6E77C063F0646A95EC0FF063C074F03C
:1012680064C075F074C001F075C002F0000E046E21
:101278003C0E036EC0EC19F001C080F002C081F092
:1012880076C063F0646A95EC0FF063500001802526
:10129800786E645000018121796E010E44EC1AF0D9
:1012A8000001EB69EC69030E07D08994F29ED59E84
:1012B800010E44EC1AF0010E0001EA6F2AD0000E6C
:1012C800026E010E016E5CEC15F023D0000E026E6A
:1012D800020E016E5CEC15F01CD081500F0AD8B4D8
:1012E8003BD7100AD8B45ED7300AD8B466D7100AEC
:1012F800D8B47BD7700AD8B47DD7300AD8B4DFD732
:10130800C00AD8B4E3D7700AD8B4CFD7200AD8B463
:1013180015D7F09040D1F2A214D080A610D067EC77
:101328001AF0020E0001816FE70E0001806F000EB7
:10133800E82EFED7802FFCD7812FFAD700F0F29243
:101348002AD1F0A2B1D080A8ADD0000E0001E76F7D
:10135800010EE66FE6C0D6F0E7C0D7F080D0000EE9
:10136800026E000E016E5CEC15F0000E106E000EA1
:101378000F6E00EC14F00001CE4BCF2B93D0000E73
:10138800026E000E016E5CEC15F0000E106E000E81
:101398000F6E00EC14F00001D04BD12B83D0000E5F
:1013A800026E000E016E5CEC15F0000E106E780EE9
:1013B8000F6E00EC14F00001CC4BCD2B73D0000E57
:1013C800026E000E016E5CEC15F0000E106E780EC9
:1013D8000F6E00EC14F00001CA4BCB2B63D0000E4B
:1013E800026E780E016E5CEC15F0000E106E000EA9
:1013F8000F6E5AEC14F00001DE4BDF2B53D0000EB9
:10140800026E780E016E5CEC15F0000E106E000E88
:101418000F6E5AEC14F00001DC4BDD2B43D0000EAC
:10142800026E780E016E5CEC15F0000E106E780EF0
:101438000F6E5AEC14F00001E04BE12B33D0000E94
:10144800026E780E016E5CEC15F0000E106E780ED0
:101458000F6E5AEC14F00001DA4BDB2B23D0D6C008
:1014680080F0D7C081F000018151000AD8A41AD0B9
:1014780000018051000AD8B472D7010AD8B47FD7C6
:10148800030AD8B48CD7010AD8B499D7070AD8B4B4
:10149800A6D7010AD8B4B3D7030AD8B4C0D7010A6B
:1014A800D8B4CDD7F09277D0F2A45BD08994D59EEA
:1014B80029EC17F0C4C077F0C3C076F07BC063F0A6
:1014C800646A95EC0FF063C074F064C075F074C082
:1014D80001F075C002F0000E046E3C0E036EC0EC05
:1014E80019F001C080F002C081F07AC063F0646A2C
:1014F80095EC0FF06350000180257C6E645000016C
:1015080081217D6E77C063F0646A95EC0FF063C04B
:1015180074F064C075F074C001F075C002F0000E7C
:10152800046E3C0E036EC0EC19F001C080F002C0DE
:1015380081F076C063F0646A95EC0FF063500001A7
:101548008025786E645000018121796E010E44EC8B
:101558001AF0030E0001EA6F0001EB69EC69F294DE
:101568001AD0800E44EC1AF0CA0E0D6EFF0E0E6EE5
:10157800CDEC04F0000E736E630E736401D0F1D7E6
:10158800210E0001806F760EE82EFED7802FFCD743
:1015980000F0732AF1D78FC0F5FF8EC0F8FF8DC019
:1015A800F7FF8CC0F6FF8BC0F4FF8AC0F3FF89C039
:1015B800DAFF88C0D9FF87C0E2FF86C0E1FF85C097
:1015C800EAFF84C0E9FF83C0FBFF82C0FAFF7F9275
:1015D8001100F1D0800E36EC1AF01C0E00019C6F41
:1015E800FF0E00019D6F09EC00F0C00E36EC1AF0FA
:1015F8008C0E00019C6FFE0E00019D6F09EC00F03F
:101608001BEC1AF0800E36EC1AF01C0E00019C6FD1
:10161800FF0E00019D6F09EC00F0C00E36EC1AF0C9
:10162800B00E00019C6FFE0E00019D6F09EC00F0EA
:101638001BEC1AF0800E36EC1AF01C0E00019C6FA1
:10164800FF0E00019D6F09EC00F0C00E36EC1AF099
:101658009E0E00019C6FFE0E00019D6F09EC00F0CC
:101668001BEC1AF01200800E36EC1AF0010E36EC64
:101678001AF02E0E00019C6FFF0E00019D6F09EC01
:1016880000F0C00E36EC1AF08C0E00019C6FFE0EB6
:1016980000019D6F09EC00F01BEC1AF0010E36EC0E
:1016A8001AF02E0E00019C6FFF0E00019D6F09ECD1
:1016B80000F0C00E36EC1AF0B00E00019C6FFE0E62
:1016C80000019D6F09EC00F01BEC1AF0010E36ECDE
:1016D8001AF02E0E00019C6FFF0E00019D6F09ECA1
:1016E80000F0C00E36EC1AF09E0E00019C6FFE0E44
:1016F80000019D6F09EC00F01BEC1AF01200800E3F
:1017080036EC1AF0010E36EC1AF0400E00019C6F10
:10171800FF0E00019D6F09EC00F0C00E36EC1AF0C8
:101728008C0E00019C6FFE0E00019D6F09EC00F00D
:101738001BEC1AF0010E36EC1AF0400E00019C6FFB
:10174800FF0E00019D6F09EC00F0C00E36EC1AF098
:10175800B00E00019C6FFE0E00019D6F09EC00F0B9
:101768001BEC1AF0010E36EC1AF0400E00019C6FCB
:10177800FF0E00019D6F09EC00F0C00E36EC1AF068
:101788009E0E00019C6FFE0E00019D6F09EC00F09B
:101798001BEC1AF01200800E36EC1AF0F50E000160
:1017A8009C6FFF0E00019D6FEDC09EF0EEC09FF094
:1017B80009EC00F0F0D7EDC090F0EEC091F0000E0B
:1017C8000001936F030E926F0BEC15F0000191511D
:1017D800000AD8A4E0D700019051000AD8B4FAD67C
:1017E800010AD8B440D7030AD8B489D7D4D7495006
:1017F8004A104B10D8A407D0000E496E800E4A6ECE
:101808003F0E4B6E1200720E016E310E026E440EC8
:10181800036E49C004F04AC005F04BC006F0ECEC7A
:1018280015F0D8B00CD0000E0001D96F220ED86F79
:10183800FF0E496E7F0E4A6E7F0E4B6E120049C036
:1018480001F04AC002F04BC003F0490E046E3A0E94
:10185800056EC40E066EECEC15F0D8B00CD0000E78
:101868000001D96F220ED86F000E496E000E4A6E25
:10187800000E4B6E12004BAE02D0010E01D0000ECE
:10188800516E5150D8B40ED049C001F04AC002F090
:101898004BC003F0D3EC19F001C049F002C04AF084
:1018A80003C04BF049C00DF04AC00EF04BC00FF01A
:1018B800AA0E106EB80E116E3F0E126E07EC11F0E4
:1018C8000DC049F00EC04AF00FC04BF049C041F0BE
:1018D8004AC042F04BC043F067EC12F041C04CF0F4
:1018E80042C04DF043C04EF04CC028F04DC029F026
:1018F8004EC02AF08DEC10F028C04FF029C050F0EF
:1019080049C028F04AC029F04BC02AF04FC009F05E
:1019180050C00AF02FEC19F009C02BF00AC02CF0C7
:101928000BC02DF00FEC19F028C049F029C04AF07F
:101938002AC04BF049C028F04AC029F04BC02AF011
:10194800BD0E2B6EFD0E2C6E000E2E6E090E2D6E2A
:10195800D6EC12F028C034F029C035F02AC036F091
:101968004FC037F050C038F03FEC13F034C049F0A6
:1019780035C04AF036C04BF05150D8B425D049286C
:101988000EE17F0E4A180BE17F0E4B18D8A407D042
:10199800000E496E000E4A6E000E4B6E1200000ECD
:1019A800096E800E0A6E3F0E0B6E49C00CF04AC0DD
:1019B8000DF04BC00EF0F4EC11F009C049F00AC06C
:1019C8004AF00BC04BF0120049C049F04AC04AF037
:1019D8004BC04BF012001EC022F0236A246A1D344B
:1019E800223601E323802250276E21C022F0236A89
:1019F800246A2034223601E323802250266E2750A1
:101A0800D8B40BD02650275CD8B00ED02750000889
:101A18002624226E180E226407D01FC01CF020C096
:101A28001DF021C01EF012002650D8B40BD027504C
:101A3800265CD8B00ED0265000082724226E180E37
:101A4800226407D01CC01CF01DC01DF01EC01EF073
:101A58001200060E256E1EBE258E21BE258C1D8EFB
:101A6800FF0E1C16FF0E1D16000E1E16208EFF0EF2
:101A78001F16FF0E2016000E21162650275CD8B020
:101A88001BD0D8901F362036213626062750261818
:101A9800D8B40DD0250625C022F0070E2216D8B4DA
:101AA80006D0EFD7D8901E321D321C32272A265076
:101AB8002718D8B41FD0F6D72750265CD8B01AD02C
:101AC800D8901C361D361E36270627502618D8B43F
:101AD8000DD0250625C022F0070E2216D8B406D050
:101AE800EFD7D890213220321F32262A26502718C5
:101AF800D8A4F7D725AE0CD0FF0E1C1AFF0E1D1A5E
:101B0800FF0E1E1A010E1C26000E1D22000E1E229C
:101B180025AC0CD0FF0E1F1AFF0E201AFF0E211A3B
:101B2800010E1F26000E2022000E2122000E256E17
:101B38001C501F261D5020221E50212221AE0ED0DF
:101B4800FF0E1F1AFF0E201AFF0E211A010E1F2664
:101B5800000E2022000E2122010E256E1FC001F06A
:101B680020C002F021C003F027C004F025C005F012
:101B7800B4EC14F001C01CF002C01DF003C01EF04C
:101B88001200000E5E6E525053105410D8A41CD090
:101B9800000E016E000E026E000E036E55C004F0BA
:101BA80056C005F057C006F0ECEC15F0D8A005D0EB
:101BB800000E0001D96F210ED86F000E526E000E74
:101BC800536E000E546E1200555056105710D8A47C
:101BD80007D0000E526E800E536E3F0E546E1200E8
:101BE80054AE41D055C028F056C029F057C02AF04D
:101BF8008DEC10F028C05FF029C060F02AC061F0B9
:101C08002BC062F05FC009F060C00AF061C00BF041
:101C180062C00CF01FEC18F05550091807E1565037
:101C28000A1804E157500B18D8B40CD0000E000164
:101C3800D96F210ED86F000E526E000E536E000E33
:101C4800546E12005F50010B5E6E52C001F053C01B
:101C580002F054C003F0D3EC19F001C052F002C0F6
:101C680053F003C054F052C034F053C035F054C0A0
:101C780036F080EC0EF034C058F035C059F036C05C
:101C88005AF058C00DF059C00EF05AC00FF055C0A8
:101C980010F056C011F057C012F007EC11F00DC04B
:101CA8005BF00EC05CF00FC05DF05BC049F05CC03B
:101CB8004AF05DC04BF0FBEC0BF049C052F04AC053
:101CC80053F04BC054F05E50D8B40FD052C001F05E
:101CD80053C002F054C003F0D3EC19F001C052F025
:101CE80002C053F003C054F0120052C052F053C067
:101CF80053F054C054F0120036AE0CD0000E000160
:101D0800D96F210ED86F000E346E000E356E000E9E
:101D1800366E1200345035103610D8A40CD0000E90
:101D28000001D96F220ED86F000E346E000E356E8A
:101D3800000E366E1200000E106E000E116E400E70
:101D4800126E370E046E000E056E34C001F035C0F9
:101D580002F036C003F0A4EC15F001C00DF002C08B
:101D68000EF003C00FF007EC11F00DC01CF00EC010
:101D78001DF00FC01EF0000E1F6E800E206EBF0EED
:101D8800216EEFEC0CF01CC034F01DC035F01EC005
:101D980036F03706D8A0380634C028F035C029F008
:101DA80036C02AF0DB0E2B6EFD0E2C6E000E2E6E4A
:101DB800080E2D6ED6EC12F028C034F029C035F08C
:101DC8002AC036F0720E106E310E116E3F0E126E72
:101DD80037C009F038C00AF02FEC19F009C00DF02F
:101DE8000AC00EF00BC00FF007EC11F00DC01CF08C
:101DF8000EC01DF00FC01EF034C01FF035C020F01B
:101E080036C021F0EFEC0CF01CC034F01DC035F0EA
:101E18001EC036F0120069D0800E36EC1AF0A90EFA
:101E280000019C6FFF0E00019D6F09EC00F0C00ED1
:101E380036EC1AF0980E00019C6FFF0E00019D6FA2
:101E4800E8C09EF0E9C09FF009EC00F01200800E97
:101E580036EC1AF07A0E00019C6FFE0E00019D6FA1
:101E6800CEC09EF0CFC09FF009EC00F0C00E36EC5B
:101E78001AF0D40E00019C6FFE0E00019D6FD0C0B9
:101E88009EF0D1C09FF009EC00F01200800E36ECF5
:101E98001AF0C20E00019C6FFE0E00019D6FCCC0AF
:101EA8009EF0CDC09FF009EC00F0C00E36EC1AF0A1
:101EB800520E00019C6FFF0E00019D6FCAC09EF07C
:101EC800CBC09FF009EC00F01200800E36EC1AF03F
:101ED800F50E00019C6FFF0E00019D6FEBC09EF098
:101EE800ECC09FF009EC00F0F0D7EBC090F0ECC02C
:101EF80091F0000E0001936F030E926F0BEC15F03A
:101F080000019151000AD8A4E0D700019051000ABD
:101F1800D8B482D7010AD8B49AD7030AD8B4B6D7A6
:101F2800D4D7000E6E6E000E6D6E63C071F064C083
:101F380072F0000E706E000E6F6E68D00F0E711486
:101F48006B6E6C6A6DC009F06EC00AF02FEC19F068
:101F580009C065F00AC066F00BC067F065C055F0AF
:101F680066C056F067C057F0000E526E200E536ED2
:101F7800410E546EC5EC0DF052C068F053C069F0C4
:101F880054C06AF068C010F069C011F06AC012F05D
:101F98006BC009F06CC00AF02FEC19F009C00DF005
:101FA8000AC00EF00BC00FF007EC11F00DC01FF0C7
:101FB8000EC020F00FC021F06FC009F070C00AF009
:101FC8002FEC19F009C01CF00AC01DF00BC01EF060
:101FD800EFEC0CF01CC028F01DC029F01EC02AF040
:101FE8008DEC10F028C06FF029C070F071C007F0B8
:101FF80072C008F0000E0A6E100E096E34EC16F06E
:1020080007C071F008C072F06D4A6E2A71507210E4
:10201800D8A494D76FC063F070C064F01200F20EB9
:10202800D36E9B8C0F0E926E9368000E946E000E0A
:10203800956E000E966E000EC26EC168000EB56EEB
:10204800C08E000E896E000E8A6E000E8B6E000E1A
:102058008C6E000E8D6E000EC26EC168F28EF08618
:10206800F298F098F19E9FEC18F0100E00019D6F09
:10207800270E9E6F000E9F6F000EA06FEFEC17F0FB
:10208800000ED76E000ED66ED59CD59AD596D584FF
:10209800D582D580000E0001EA6F15D05DEC17F0EF
:1020A80029D0E5EC19F026D081EC11F023D005EC0D
:1020B8001AF020D00FEC0FF01DD04BEC19F01AD00D
:1020C800EDEC0AF017D00001EA51000AD8B4E6D7BF
:1020D800010AD8B4E6D7030AD8B4E6D7010AD8B4B7
:1020E800E6D7060AD8B4E6D7030AD8B4E6D7010A71
:1020F800D8B4E6D7030E0101176F8A0E0101166FD7
:10210800550EE82EFED7162FFCD7172FFAD700D07A
:10211800DAD72AC02CF02D6A2E6A29342C3601E32E
:102128002D802C50366E3650D8A409D0000E286E5B
:10213800000E296E000E2A6E000E2B6E1200170E6E
:102148002C6E28C02DF029C02EF02AC02FF02C2884
:10215800306E04D0D8902F322E322D32302EFAD74E
:102168002D50316E298EFF0E2816FF0E2916000EEF
:102178002A162850326E2950336E2A50346E356A2A
:102188008E0E365E36AE16D03650800A8F0FD8B017
:1021980009D0000E286E000E296E000E2A6E000E61
:1021A8002B6E1200D8903532343233323232363E0A
:1021B800F9D715D0170E36640FD0000E286E000E12
:1021C800296E000E2A6E000E2B6E1200D890323641
:1021D80033363436353636063650D8A4F7D731502C
:1021E800D8B408D0351E341E331E326C000E33228C
:1021F8003422352232C028F033C029F034C02AF006
:1022080035C02BF012000FC013F0146A156A0E3493
:10221800133601E314801350166E1650D8A407D055
:10222800000E0D6E000E0E6E000E0F6E120012C024
:1022380013F0146A156A1134133601E3148013502D
:102248001B6E1B50D8A407D0000E0D6E000E0E6E2C
:10225800000E0F6E12001B507B0F16260FC01BF0CE
:1022680012501B1A800E1B160E8E118EFF0E1016A2
:10227800FF0E1116000E1216000E176E000E186EC5
:10228800000E196E070E1A6E0DA006D010501726F4
:102298001150182212501922D8900F320E320D32D6
:1022A800D8901036113612361A2EEED7090E1A6E3D
:1022B8000DA006D0105017261150182212501922BE
:1022C800D8900F320E320D32D89019321832173298
:1022D8001A2EEED717C001F018C002F019C003F08B
:1022E80016C004F01BC005F0B4EC14F001C00DF0EA
:1022F80002C00EF003C00FF012004AD0800E36EC78
:102308001AF0270E00019C6FFE0E00019D6F09EC6C
:1023180000F0000E0001E36F010E1CD0800E36ECB9
:102328001AF00F0E00019C6FFE0E00019D6F09EC64
:1023380000F0000E0001E36F020E0CD0800E36ECA8
:102348001AF0F60E00019C6FFD0E00019D6F09EC5E
:1023580000F019D0E26F36D0800E36EC1AF0F60E87
:1023680000019C6FFD0E00019D6F09EC00F00BD081
:10237800800E36EC1AF0F60E00019C6FFD0E00017F
:102388009D6F09EC00F0000E0001E36F000EE2D72C
:10239800E2C0C1F0E3C0C2F00001C251000AD8A4F3
:1023A80011D00001C151000AD8B4A8D7010AD8B485
:1023B800B5D7030AD8B4C2D7010AD8B4CDD7070A0B
:1023C800D8B4D6D7C00E36EC1AF066EC1AF0F80E70
:1023D80000019C6FFE0E00019D6F09EC00F01200D9
:1023E8000BC00FF0106A116A0A340F3601E310802F
:1023F8000F50166E1650D8A407D0000E096E000EA6
:102408000A6E000E0B6E12000EC00FF0106A116AF1
:102418000D340F3601E310800F50176E1750D8A4F3
:1024280007D0000E096E000E0A6E000E0B6E120029
:10243800000E136E000E146E000E156E1750890FE5
:10244800165E0BC017F00E50171A800E17160A8E5C
:10245800FF0E0916FF0E0A16000E0B160D8EFF0E44
:102468000C16FF0E0D16000E0E16180E126ED890D2
:102478001336143615360C50095C0D500A580E5098
:102488000B58D8A007D00C50095E0D500A5A0E50B0
:102498000B5A1380D89009360A360B36122EE7D716
:1024A80013C001F014C002F015C003F016C004F008
:1024B80017C005F0B4EC14F001C009F002C00AF02E
:1024C80003C00BF0120041C001F042C002F043C04B
:1024D80003F0470E046E000E056EA4EC15F048AE2E
:1024E80010D043AE07D0000E416E800E426EBF0E74
:1024F800436E1200000E416E000E426E000E436ED7
:102508001200485004E1150E475CD8A007D041C01E
:1025180041F042C042F043C043F0120041C028F0ED
:1025280042C029F043C02AF08DEC10F028C037F0E3
:1025380029C038F02AC039F02BC03AF0B2EC16F0B6
:1025480037C044F038C045F039C046F041C001F00A
:1025580042C002F043C003F044C004F045C005F097
:1025680046C006F0ECEC15F0D8B015D044C01CF00D
:1025780045C01DF046C01EF0000E1F6E800E206E76
:10258800BF0E216EEFEC0CF01CC041F01DC042F0F4
:102598001EC043F0120044C041F045C042F046C09E
:1025A80043F012002DC001F02EC002F0000E046EA0
:1025B800030E036EC0EC19F02BC02FF02CC030F0C6
:1025C80001502F26025030222FC0F6FF30C0F7FFEF
:1025D8000900F5CF31F00900F5CF32F00A00F5CF48
:1025E80033F03ED031C010F032C011F033C012F0D9
:1025F80028C00DF029C00EF02AC00FF007EC11F02A
:102608000DC01CF00EC01DF00FC01EF0000E046EB1
:10261800030E036E2D06D8A02E062DC001F02EC085
:1026280002F0C0EC19F02BC02FF02CC030F0015094
:102638002F26025030222FC0F6FF30C0F7FF0900C6
:10264800F5CF1FF00900F5CF20F00A00F5CF21F0F3
:10265800EFEC0CF01CC031F01DC032F01EC033F09E
:102668002D502E10D8A4BED731C028F032C029F082
:1026780033C02AF01200345035103610D8A407D0D1
:10268800000E346E000E356E000E366E1200365097
:102698007F0B396E3A6AD89039363A363950372630
:1026A8003A50382235AE03D0396A392A01D0396A0E
:1026B80039503726000E382238AE0CD0000E0001F3
:1026C800D96F220ED86F000E346E000E356E000ED4
:1026D800366E120038BE16D03804D8A013D0000EBB
:1026E8000001D96F220ED86F36AE06D0FF0E346EB9
:1026F8007F0E356EFF0EECD7FF0E346E7F0E356EF3
:102708007F0EE6D7383438303A6E3730396E365067
:102718003918800B3918366E37C039F0010E391662
:1027280039323932355039187F0B3918356E34C083
:1027380034F035C035F036C036F01200000E000116
:10274800986F000E996F000E9A6F000E9B6F000134
:102758009451000195110001961100019711D8B408
:1027680042D0010E00019C6F08D00001D890943728
:1027780095379637973700019C2B000197AFF5D70F
:102788000001D890983799379A379B3700019451B0
:102798000001905D00019551000191590001965189
:1027A800000192590001975100019359D8A012D005
:1027B800000194510001905F000195510001915B67
:1027C800000196510001925B000197510001935B53
:1027D800000198810001D89097339633953394334C
:1027E80000019C2FCDD798C090F099C091F09AC065
:1027F80092F09BC093F012005A0E0F24016E000E47
:102808001020026E000E046E050E036EC0EC19F067
:1028180001C007F002C008F0000E0A6E5A0E096ED9
:1028280034EC16F00A0E0724136E000E0820146EFE
:10283800000E166E000E156E165037E1320E155C3E
:10284800D8B012008B84000E186E000E176E06D0DA
:10285800530EE82EFED700F0174A182A1350175CBB
:1028680014501858D8A0F4D78B94000E186E000E88
:10287800176E06D0530EE82EFED700F0174A182A16
:1028880013C011F014C012F0111E121E114A122AA0
:10289800C80E1126000E12221150175C125018583B
:1028A800D8A0E8D7154A162AC7D712005A0E0F24FF
:1028B800016E000E1020026E000E046E050E036EEF
:1028C800C0EC19F001C007F002C008F0000E0A6E53
:1028D8005A0E096E34EC16F00A0E0724136E000E19
:1028E8000820146E000E166E000E156E165037E195
:1028F800320E155CD8B012008B82000E186E000ED6
:10290800176E06D0530EE82EFED700F0174A182A85
:102918001350175C14501858D8A0F4D78B92000E97
:10292800186E000E176E06D0530EE82EFED700F074
:10293800174A182A13C011F014C012F0111E121EE3
:10294800114A122AC80E1126000E12221150175CC5
:1029580012501858D8A0E8D7154A162AC7D7120017
:102968000450D8B405D0015002100310D8A40CD0DC
:10297800000E016E000E026E000E036E1200042A95
:10298800D890033202320132000E0114066E000E96
:102998000214076EFE0E0314086E06500710081086
:1029A800D8B40CD0ECD7042A010E0126000E02225E
:1029B800000E0322D890033202320132000E0114B5
:1029C800066E000E0214076EFF0E0314086E065002
:1029D80007100810D8B406D0E6D70406D8900136F8
:1029E8000236033602BE03D0020E0460F6D704A0F6
:1029F800029ED8900432045003120550D8A4038EC6
:102A080001C001F002C002F003C003F01200000E82
:102A18000001956F000191AF08D00001906D911FE2
:102A2800D8B0912B010E0001956F000193AF05D02E
:102A38000001926D931FD8B0932B000192510001B1
:102A48009311D8B426D0010E0001946F06D000016E
:102A5800D890923793370001942B000193AFF7D7A2
:102A6800000192510001905D0001935100019159BC
:102A7800D8A008D0000192510001905F0001935145
:102A88000001915B0001D890933392330001942F99
:102A9800E7D7000195510001D8B405D00001906D29
:102AA800911FD8B0912B90C090F091C091F0120076
:102AB80001C005F002C006F0000E086E000E076E99
:102AC80008503DE1320E075CD8B012008B80000E32
:102AD8000A6E000E096E09D0040E036E3E0EE82E33
:102AE800FED7032EFCD7094A0A2A0550095C06506E
:102AF8000A58D8A0F1D78B90000E0A6E000E096E06
:102B080009D0040E036E3E0EE82EFED7032EFCD726
:102B1800094A0A2A05C003F006C004F0031E041E71
:102B2800034A042A140E0326000E04220350095CEB
:102B380004500A58D8A0E5D7074A082AC1D7120076
:102B4800015002100310D8A40FD004C0D9FF05C04B
:102B5800DAFF000EDE6E000EDD6E000E016E000E56
:102B6800026E000E036E120003507F0B066E076A9A
:102B7800D8900636073604C0D9FF05C0DAFF06C06C
:102B8800DEFF07C0DDFF02AE03D0066A062A01D0C9
:102B9800066A065004C0D9FF05C0DAFFDE12000E2F
:102BA800DD1204C0D9FF05C0DAFF820EDE26FF0E53
:102BB800DD2203800382038403860388038A039C3F
:102BC800029E01C001F002C002F003C003F012002F
:102BD80003AE16D001C007F002C008F003C009F028
:102BE800071E081E091E072A000E08220922000EC9
:102BF8000724016E000E0820026E800E0920036E65
:102C080006AE16D004C007F005C008F006C009F0EB
:102C1800071E081E091E072A000E08220922000E98
:102C28000724046E000E0820056E800E0920066E2B
:102C3800000E011A000E021A800E031A000E041A62
:102C4800000E051A800E061A0450015C0550025841
:102C580006500358D8B002D0D8901200D88012007D
:102C6800000E0C6E0AAE06D0096C0A1ED8B00A2AED
:102C7800010E0C6E08AE06D0076C081ED8B0082AE4
:102C8800010E0C1A000E0E6E000E0D6E09500A1081
:102C9800D8B41CD0010E0B6E04D0D89009360A3671
:102CA8000B2A0AAEFAD7D8900D360E360950075CB3
:102CB8000A500858D8A005D00950075E0A50085A8B
:102CC8000D80D8900A3209320B2EEDD70C50D8B4AB
:102CD80004D00D6C0E1ED8B00E2A0DC007F00EC021
:102CE80008F01200000E0001956F000E946F0001AD
:102CF800925100019311D8B42CD0010E0001966FA7
:102D080006D00001D890923793370001962B000126
:102D180093AFF7D70001D8909437953700019251B7
:102D28000001905D0001935100019159D8A00AD08B
:102D3800000192510001905F000193510001915BE5
:102D4800000194810001D890933392330001962FAB
:102D5800E1D794C090F095C091F01200000E406E3B
:102D68008E0E3F6E3AAE11D03A1E391E381E376CA1
:102D7800000E382239223A22010E406E06D0D89031
:102D88003A323932383237323F2A000E37143B6E26
:102D9800000E38143C6E000E39143D6EFF0E3A14C6
:102DA8003E6E3B503C103D103E10D8A4E8D737C0CB
:102DB80001F038C002F039C003F03FC004F040C051
:102DC80005F0B4EC14F001C037F002C038F003C0CD
:102DD80039F0120058EC1AF0000E0001926FD00E74
:102DE800916F4AEC1AF0000E0001926F000E916F7D
:102DF8004AEC1AF054EC1AF058EC1AF0000E0001E4
:102E0800926FD10E916F4AEC1AF0000E0001936F89
:102E1800050E0001936501D010D000019351010DFA
:102E2800C30EF324D96E000EF420DA6E010E81EC85
:102E380019F0DF6E0001932BEBD7000E81EC19F02F
:102E48000001C96F54EC1AF0120060EC1AF0000E81
:102E5800036ED00E026E4FEC1AF0000E036E000ED9
:102E6800026E4FEC1AF05CEC1AF060EC1AF0000EEF
:102E7800036ED10E026E4FEC1AF0000E046E050EB2
:102E8800046401D00ED00450010DC30EF324D96E92
:102E9800000EF420DA6E010EADEC19F0DF6E042A94
:102EA800EED7000EADEC19F00001C96F5CEC1AF01A
:102EB8001200EEEC16F0800E36EC1AF0D90E000176
:102EC8009C6FFF0E00019D6FC8C09EF000019F6BB4
:102ED800C7C0A0F00001A16BC5C0A2F00001A36BA0
:102EE800C4C0A4F00001A56BC3C0A6F00001A76B85
:102EF80009EC00F0C00E36EC1AF0BA0E00019C6F17
:102F0800FF0E00019D6F81CF9EF000019F6B09ECC1
:102F180000F012000001995100019A11D8B426D08E
:102F2800010E00019B6F06D00001D89099379A379F
:102F380000019B2B00019AAFF7D7000199510001BE
:102F4800975D00019A5100019859D8A008D0000156
:102F580099510001975F00019A510001985B0001A7
:102F6800D8909A33993300019B2FE7D797C097F0F1
:102F780098C098F012000001916F00019151F00B78
:102F88000001906F8C500F0B8C6E000190518C10CB
:102F98008C6E8C96190EE82EFED78C86190EE82EAC
:102FA800FED700019139F00B0001916F000191519A
:102FB800F00B0001906F8C500F0B8C6E000190513C
:102FC8008C108C6E8C96190EE82EFED78C86190EF6
:102FD800E82EFED71200000EC76E280EC66E000E31
:102FE800C56E800E0001906F960E916F980E926FCD
:102FF800000E936F9DC0A1F09EC0A2F09FC0A3F0E9
:10300800A0C0A4F0020ED8900001A137A237A337C0
:10301800A437E82EF8D7A1C094F0A2C095F0A3C0B9
:1030280096F0A4C097F0A2EC13F000019005C86ECA
:103038009486948812008E0E116E06D0D8900C32A9
:103048000B320A320932112A000E09140D6E000ED5
:103058000A140E6E000E0B140F6EFF0E0C14106E79
:103068000D500E100F101010D8A4E8D709C001F0A9
:103078000AC002F00BC003F011C004F0000E056E88
:10308800B4EC14F001C009F002C00AF003C00BF060
:103098001200C80EF66E340EF76E000EF86E00EED3
:1030A800EBF010EE04F00900F5CFEEFFE550E1502B
:1030B800FAE101EE00F0160EEE6AE806FDE100EE18
:1030C800C3F0280EEE6AE806FDE100EE76F0090E80
:1030D800EE6AE806FDE17F907F92000EF86E00012F
:1030E80013EF10F0000E066E000E056E035004106C
:1030F800D8B41CD0010E076E04D0D890033604361D
:10310800072A04AEFAD7D890053606360350015C74
:1031180004500258D8A005D00350015E0450025A4A
:103128000580D89004320332072EEDD705C001F090
:1031380006C002F01200310E0001936FB20EE82EA5
:10314800FED7932FFCD700F0330E36EC1AF0330E6F
:1031580036EC1AF0320E36EC1AF0280E36EC1AF06D
:103168000F0E36EC1AF0060E36EC1AF0010E36EC9D
:103178001AF0310E0001936FB20EE82EFED7932F8E
:10318800FCD700F01200026E0250F00B016E8C505A
:103198000F0B8C6E01508C108C6E8C96190EE82ECD
:1031A800FED78C86190EE82EFED70238F00B026E79
:1031B8000250F00B016E8C500F0B8C6E01508C106E
:1031C8008C6E8C96190EE82EFED78C86190EE82E7A
:1031D800FED712000A500B10D8B418D0010E0C6E8E
:1031E80004D0D8900A360B360C2A0BAEFAD70A5000
:1031F800085C0B500958D8A004D00A50085E0B5040
:10320800095AD8900B320A320C2EF1D708C008F0B0
:1032180009C009F012002B502C102D10D8B406D07C
:10322800000E2B1A000E2C1A800E2D1A28C01CF026
:1032380029C01DF02AC01EF02BC01FF02CC020F0A2
:103248002DC021F0EFEC0CF01CC028F01DC029F0B7
:103258001EC02AF01200000E0C6E0AAE06D0096CD1
:103268000A1ED8B00A2A010E0C6E09C001F00AC065
:1032780002F0036A8E0E046E0CC005F0B4EC14F074
:1032880001C009F002C00AF003C00BF01200800E62
:1032980036EC1AF00A0E00019C6FFF0E00019D6FBC
:1032A80009EC00F0C00E36EC1AF0680E00019C6FB5
:1032B800FE0E00019D6FE4C09EF0E5C09FF009EC92
:1032C80000F012000001905100019203F3CF94F036
:1032D800F4CF95F00001905100019303F3500001E1
:1032E80095270001915100019203F35000019527A1
:1032F80094C090F095C091F012000001916F11EC0C
:103308001AF0C58611EC1AF0C9CF92F011EC1AF038
:10331800000191510001D8A402D0C58A01D0C59AF4
:10332800C5880001925112000001926F000E000141
:10333800916F3A0E0001926107D02F0E000192653D
:1033480003D0010E0001916F91C090F000019031FF
:103358001200026E25EC1AF0C58625EC1AF0C9CFCA
:1033680003F025EC1AF00250D8A402D0C58A01D087
:10337800C59AC5880350120001500302F3CF05F027
:10338800F4CF06F001500402F3500626025003025F
:10339800F350062605C001F006C002F012000150E5
:1033A80002100310D8B406D0000E011A000E021A3B
:1033B800800E031A01C001F002C002F003C003F03E
:1033C8001200F29E8094010E36EC1AF0800E36EC54
:1033D8001AF0640E00019C6FFF0E00019D6F09EC4E
:1033E80000F0FFD7036E000E026E3A0E036005D0A0
:1033F8002F0E036402D0010E026E02C001F00130EC
:103408001200800E36EC1AF0E60E00019C6FFE0EDC
:1034180000019D6F09EC00F01200C7B4FED7C5CFBC
:1034280090F01F0E00019017D8B41200F6D781A2B1
:10343800FED781380F0B0F0B7E6E81B2FED700F0DE
:103448001200C7B4FED7C5CF01F01F0E0116D8B4BD
:103458001200F7D70001926F8C8400019251BFECE3
:1034680017F012000001926F8C9400019251BFEC8A
:1034780017F01200036E8C840350C7EC18F012008A
:10348800036E8C940350C7EC18F0120011EC1AF07C
:1034980091C0C9FF120025EC1AF002C0C9FF120042
:1034A80011EC1AF0C584120011EC1AF0C580120054
:1034B80025EC1AF0C584120025EC1AF0C58012001C
:0834C800FFFFFFFF12001200DC
:10FD8600003132334134353642373839432A30234D
:10FD9600440001000800400000020010008001003D
:10FDA6000A006400E803102701001000000100109B
:10FDB6005035210805021700803F72313FFE753E1F
:10FDC60058633D951D3CC5AE3A79213994803793E9
:10FDD600A73556153400000000803FF0FFBEE2A9AB
:10FDE6003E8376BEAE2B3E3CC3BDD2133D78D3BB1D
:10FDF60052756E6E696E672E2E2E202020202020D2
:10FE060020202020202020200052756E6E696E670B
:10FE16002E2E2020202020202020202020202020C0
:10FE26000052756E6E696E672E20202020202020DD
:10FE36002020202020202000253032782F25303227
:10FE4600782F2530327820202020202000253032BF
:10FE5600783A253032783A25303278202020202012
:10FE6600200054696D653A202564207320202020E7
:10FE760020202000534F5550204C424C3A202564F8
:10FE860020202020200023206F662063616E733AB5
:10FE960020313020202020002320736F75702063CE
:10FEA600616E733A2034202020002320736F646132
:10FEB6002063616E733A203620202000504F504355
:10FEC600414E205441423A20256420202000534FC1
:10FED6005550204E4F4C424C3A202564202020009D
:10FEE6004F7065726174696F6E20446F6E65212074
:10FEF60020005052455353203420544F2053544F22
:10FF060050202000546F74616C204F7065726174CC
:10FF1600696F6E20200052756E233120202020410B
:10FF26003A4E65787420200052756E2332202020C8
:10FF360020413A4E65787420200052756E23332096
:10FF4600202020413A4E657874202000504F5043BF
:10FF5600414E204E4F5441423A2025642000454DE3
:10FF6600455247454E43592C53544F505045440033
:10FF760030313233343536373839414243444546D9
:10FF8600003031323334353637383961626364656F
:10FF96006600546F74616C3A20256420202020206E
:10FFA60020200043616E20436F756E742020202050
:10FFB600202020004445425547504F5254423A2093
:10FFC60025642000496E76616C696420416374691A
:10FFD6006F6E00413A537461727420233A4C6F6716
:10FFE600730072656163686564206C6F67730045B2
:0AFFF60052524F523A2025640000D9
:020000040020DA
:08000000FFFFFFFFFFFFFFFF00
:020000040030CA
:0E000000FF021F1EFF8381FF0FC00FE00F40A5
:00000001FF
